:1070000055C000006EC000006CC000006AC00000E7
:1070100068C0000066C0000064C0000062C00000DC
:1070200060C000005EC00000C3C100005AC0000084
:1070300058C0000056C0000054C0000052C00000FC
:1070400050C0000078C000004CC000004AC00000E2
:1070500048C0000046C0000044C0000042C000001C
:1070600040C000003EC000003CC000003AC000002C
:1070700038C0000036C0000034C0000032C000003C
:1070800030C000002EC000002CC000002AC000004C
:1070900028C0000026C0000024C0000022C000005C
:1070A00020C000001EC000001CC0000011241FBE34
:1070B000CFEFDAE0DEBFCDBF11E0A0E0B1E0E8E164
:1070C000F5E702C005900D92AA30B107D9F721E08B
:1070D000AAE0B1E001C01D92A131B207E1F728D1C9
:1070E00019C28ECF1092C80088E98093C90086E04B
:1070F0008093CA001092CD0080E18093CC00089567
:107100009091C80095FFFCCF8093CE000895E0E6F3
:10711000F0E088E180831082F89410926F00109262
:107120008100109285001092840081E085BF15BE19
:107130000C94000008951F920F920FB60F92112425
:107140002F938F939F93EF93FF931092850010924C
:107150008400E0E0F0E085919491019649F08091FF
:107160000A0190910B01019690930B0180930A0103
:10717000FF91EF919F918F912F910F900FBE0F90E4
:107180001F901895A89508958091C80087FFFCCF9F
:107190008091C80084FFF6DF8091CE000895F4DF6F
:1071A000803239F088E18093600088E0809360004D
:1071B000FFCF84E1A5CFCF93C82FE6DFC150E9F719
:1071C000CF91EDCFCF93DF931F92CDB7DEB7612C78
:1071D000712C78E1E72EE8E0DE2EF3E0FF2ECC24E0
:1071E000C394A5E0BA2EB1E1AB2ECEDF813469F4B1
:1071F000CBDF8983D4DF8981823811F0813811F4A3
:1072000084E001C083E07CDF90C0823411F484E12B
:1072100003C0853419F485E0CEDF87C0853569F475
:10722000B3DF682EB1DF712C782A872D881F88275D
:10723000881F8BBF660C771C77C0863521F484E0ED
:10724000BADF80E0E0CF843609F045C09DDF9CDFE7
:10725000982E9ADF611480E7780618F000E011E0BC
:1072600005C0F301F0925700E895F8CF8DDFF801E3
:1072700081938F019E12FACF6114F0E77F0620F010
:10728000F301F0925700E8958ADF07B600FCFDCFC6
:10729000A301A0E0B1E08C9112969D01215031092B
:1072A000F901208190E0922BFA010C01C092570065
:1072B000E89511244E5F5F4FA038F1E0BF0759F702
:1072C000F301B0925700E89507B600FCFDCFA092FD
:1072D0005700E8952AC08437C1F456DF55DF982E51
:1072E00053DF5DDFF301862C890C8F010F5F1F4F89
:1072F000849106DF801207C0FFEF6F1A7F0A9A940D
:10730000690C711C12C0F801F0CF853739F447DFE2
:107310008EE1F6DE85E9F4DE87E875CF813521F46C
:10732000E0926000D09260003ADF80E1E9DE5DCF5C
:10733000C0910008D0910108109201081092000835
:1073400014B714BECFDE88E1809360008EE0809396
:10735000600011FD19C010FF08C0E0E0F0E0859169
:107360009491019611F0D3DE0FC013FF0DC08091F0
:10737000000190910101C817D90731F0E0E0F0E079
:1073800085919491019679F71DDF8093E900EBEEEA
:10739000F0E0808181608083EDEEF0E01082609308
:1073A000EC0040838091EE00881F8827881F089595
:1073B0001F920F920FB60F9211242F933F934F936A
:1073C0005F936F937F938F939F93AF93BF93EF934D
:1073D000FF938091DA0080FF1BC08091D80080FF6E
:1073E00017C08091DA008E7F8093DA008091D900F7
:1073F00080FF0BC080E189BD82E189BD09B400FE38
:10740000FDCF81E08EBB85D003C019BC1EBA81D0F0
:107410008091E10080FF17C08091E20080FF13C0DF
:107420008091E2008E7F8093E2008091E200806193
:107430008093E2008091D80080628093D80019BCCC
:1074400085E08EBB66D08091E10084FF2CC08091E6
:10745000E20084FF28C080E189BD82E189BD09B4D2
:1074600000FEFDCF8091D8008F7D8093D800809161
:10747000E1008F7E8093E1008091E2008F7E809317
:10748000E2008091E20081608093E200809110012F
:10749000811104C08091E30087FF02C084E001C035
:1074A00081E08EBB36D08091E10083FF21C08091C6
:1074B000E20083FF1DC08091E100877F8093E1009F
:1074C00082E08EBB109210018091E1008E7F80934C
:1074D000E1008091E2008E7F8093E2008091E200E3
:1074E00080618093E20042E060E080E04EDF11D0F6
:1074F000FF91EF91BF91AF919F918F917F916F918C
:107500005F914F913F912F910F900FBE0F901F9061
:0875100018950895F894FFCFCF
:0A7518007777000000000000080073
:040000030000700089
:00000001FF
